:100000000C9437000C9483000C9454000C9454000E
:100010000C9454000C9454000C9454000C94540010
:100020000C9454000C9454000C9454000C94B5009F
:100030000C9454000C94C1050C9454000C9454007E
:100040000C9454000C9454000C9454000C945400E0
:100050000C9454005C0661066F067D069F06C1067F
:10006000D206E206F906F906F406F906F7061124A7
:100070001FBECFE5D8E0DEBFCDBF10E0A0E6B0E008
:10008000ECECF1E102C005900D92A63CB107D9F766
:1000900021E0A6ECB0E001C01D92A736B207E1F75F
:1000A0000E949E030C94E4080C9400001ABA80E4A9
:1000B00087B987E886B9089597B1987F8770892BAB
:1000C00087B9369A3699FECF84B195B1089583B732
:1000D000856083BF12BE89B7816089BF1092D1004D
:1000E0001092D0001092CD001092CC001092F5002A
:1000F0001092F4001092FB001092FA001092E000AF
:100100001092EF0008951F920F920FB60F921124D4
:100110002F938F939F938091CA009091CB0001966B
:100120009093CB008093CA008091F4009091F500E9
:1001300001969093F5008093F4008091CA0090910D
:10014000CB00843992404CF08091CE009091CF004A
:1001500001969093CF008093CE009F918F912F9125
:100160000F900FBE0F901F9018951F920F920FB611
:100170000F9211242F933F934F935F936F937F932D
:100180008F939F93AF93BF93EF93FF938091D20090
:100190009091D30001969093D3008093D2008091E8
:1001A000EF00813019F0823021F005C00E943A043E
:1001B00002C00E94330380E00E945C009695879500
:1001C000969587959093EE008093ED008091D200F4
:1001D0009091D3000A9754F08091F4009091F5002B
:1001E0000E9444011092D3001092D2008091D0005E
:1001F0009091D100892BC9F08FEF0E944A05809120
:10020000FA000E944A058091F4009091F5000E9446
:100210004A058091ED000E944A058091EF000E94FE
:100220004A058091E0000E944A051092F500109264
:10023000F4008091E000882361F08091600081509B
:1002400019F08093600005C085E0809360001092F3
:10025000E000FF91EF91BF91AF919F918F917F91BE
:100260006F915F914F913F912F910F900FBE0F9023
:100270001F90189587B38F6087BB88B3807F88BB3A
:100280008FEF84BB15BA0895CF93DF93AC01C6EC12
:10029000D0E09C01ADECBCEC0E94D508969587950A
:1002A00096958795969587959C01220F331F880F09
:1002B000991F880F991F880F991F820F931FFA01AA
:1002C000E81BF90BEF59FF4F808188839A010E9448
:1002D000D508AC015695479556954795569547953F
:1002E0009A010E94D508969587959695879596953B
:1002F00087959C01220F331F880F991F880F991F24
:10030000880F991F820F931F481B590BFA01EF5951
:10031000FF4F80818983DF91CF91089588B38F60EB
:1003200088BBC298E6ECF0E0818185BB8FE99FE055
:100330000197F1F700C0000088B38F6088BBC398B5
:10034000808185BB8FE99FE00197F1F700C0000035
:100350008FEF85BB0895E199FECF9FBB8EBB6DBB30
:10036000E29AE19A0895E199FECF9FBB8EBBE09A95
:100370008DB30895DF92EF92FF920F931F93CF9367
:10038000DF93C0E2D0E019C0CE010E94B301D82EA5
:10039000CE0101960E94B301229690E0982F882703
:1003A0008D0D911DF801819391938F01EC16FD063F
:1003B00059F7E701CA37D10541F08E01055B1F4FA0
:1003C0007E01F2E1EF0EF11CDFCFDF91CF911F91A3
:1003D0000F91FF90EF90DF900895CF92DF92EF9210
:1003E000FF920F931F93CF93DF93C0E2D0E015C02D
:1003F000F8016081CE010E94AB01F80161810E5FBE
:100400001F4FCE0101960E94AB012296CC15DD054F
:1004100079F7E601CA37D10541F08E01055B1F4F20
:100420006E01F2E1CF0ED11CE3CFDF91CF911F918E
:100430000F91FF90EF90DF90CF9008951F93CF938F
:10044000DF93E9EEF0E01181D281C38160818AE718
:1004500090E00E94AB01612F8BE790E00E94AB011E
:100460006D2F8CE790E00E94AB016C2F8DE790E040
:100470000E94AB01ECEFF0E01181D281C381608179
:100480008EE790E00E94AB01612F8FE790E00E9421
:10049000AB016D2F80E890E00E94AB016C2F81E8EA
:1004A00090E00E94AB01E6EDF0E01181D281C381C2
:1004B000608182E890E00E94AB01612F83E890E0C8
:1004C0000E94AB016D2F84E890E00E94AB016C2F7D
:1004D00085E890E00E94AB01DF91CF911F910895D4
:1004E0001F93CF93DF938AE790E00E94B301182F08
:1004F0008BE790E00E94B301D82F8CE790E00E9438
:10050000B301C82F8DE790E00E94B301E9EEF0E05F
:100510001083D183C28383838EE790E00E94B3016E
:10052000182F8FE790E00E94B301D82F80E890E069
:100530000E94B301C82F81E890E00E94B301ECEF64
:10054000F0E01083D183C283838382E890E00E942D
:10055000B301182F83E890E00E94B301D82F84E8FC
:1005600090E00E94B301C82F85E890E00E94B3019B
:10057000E6EDF0E01083D183C2838383DF91CF91D6
:100580001F9108951092DF001092DE001092030177
:10059000109202018FE99FE00197F1F700C000007F
:1005A0000E94BA018FE99FE00197F1F700C00000B7
:1005B00008950097E9F08A3E2FEF9207E4F0823F1A
:1005C0002FEF9207DCF0893F2FEF9207D4F09923A9
:1005D000DCF087319105DCF48F309105DCF4883054
:1005E0009105DCF418161906DCF080E090E008951F
:1005F00084E090E0089580E090E0089581E090E04C
:10060000089582E090E0089583E090E0089588E006
:1006100090E0089587E090E0089586E090E00895E6
:1006200085E090E00895009779F0823F2FEF9207E0
:1006300074F099237CF08F3091057CF4181619061C
:100640007CF080E090E0089582E090E0089580E002
:1006500090E0089581E090E0089584E090E00895AE
:1006600083E090E008950F931F93CF93DF93209141
:10067000F4003091F5008091FA009091FB00821B0C
:10068000930B9093DF008093DE00823E2FEF920762
:100690003CF482EE9FEF9093DF008093DE0008C071
:1006A0004F9734F08EE190E09093DF008093DE006E
:1006B0008091DE009091DF0000910601109107010A
:1006C000081B190B10930101009300010E94D9022D
:1006D000EC019093090180930801C8010E94130363
:1006E00090930501809304019C01220F331F220F78
:1006F000331F220F331F820F931FC80FD91FCC0F38
:10070000DD1FC559DF4F8881998190930301809344
:10071000020128B539B5880F991F820F931F99BD23
:1007200088BD8091DE009091DF0090930701809357
:100730000601DF91CF911F910F9108952FEF81EE68
:1007400094E0215080409040E1F700C000000E94FA
:1007500056000E9467000E943A010E94C2020E9455
:10076000CC030E94DF030E94310589E190E00E94E2
:1007700041050E94BA010E9470022FEF8FE39CE9AD
:10078000215080409040E1F700C000000E94BD056C
:1007900078940E948E01FDCF1092CB001092CA0077
:1007A0001092CF001092CE001092F5001092F4003B
:1007B0008A98929A80E48BBF81E085BF089580E09B
:1007C00090E0A8E4B2E48093E9009093EA00A0935B
:1007D000EB00B093EC008AE999E9A9E9BFE38093C3
:1007E000FC009093FD00A093FE00B093FF0080E01A
:1007F00090E0A0E2B1E48093D6009093D700A0935C
:10080000D800B093D9001092F0001092F10010922D
:10081000F2001092F3001092F6001092F70010927E
:10082000F8001092F9001092E5001092E600109284
:10083000E7001092E8001092E1001092E20010929E
:10084000E3001092E4001092DA001092DB001092A4
:10085000DC001092DD008FE99FE00197F1F700C006
:1008600000000E9470028FE99FE00197F1F700C03D
:10087000000008954F925F926F927F928F929F92A5
:10088000AF92BF92CF92DF92EF92FF928091F400ED
:100890009091F5006091FA007091FB00681B790B54
:1008A000072E000C880B990B0E94AD076B017C0191
:1008B0006093F0007093F1008093F2009093F30046
:1008C00020E030E0A9010E947707882309F4BCC02A
:1008D0002091F6003091F7004091F8005091F90016
:1008E000C701B6010E940B074B015C0120E030E814
:1008F0004BEB54E40E945D0818164CF08092F60011
:100900009092F700A092F800B092F9000CC080E03D
:1009100090E8ABEBB4E48093F6009093F700A093DB
:10092000F800B093F900A70196016091E100709181
:10093000E2008091E3009091E4000E940A074B01DD
:100940005C016093E5007093E6008093E70090936C
:10095000E8002091F6003091F7004091F8005091A6
:10096000F9006091FC007091FD008091FE00909173
:10097000FF000E9462082B013C012091E9003091A8
:10098000EA004091EB005091EC00C701B6010E94D3
:1009900062089B01AC01C301B2010E940B076B010D
:1009A0007C012091D6003091D7004091D800509121
:1009B000D900C501B4010E9462089B01AC01C701C6
:1009C000B6010E940B076B017C0120E030E0A90119
:1009D0000E94770788234CF0C092DA00D092DB00A7
:1009E000E092DC00F092DD0008C01092DA00109274
:1009F000DB001092DC001092DD006091DA00709153
:100A0000DB008091DC009091DD000E947C0779BDC5
:100A100068BD28B539B586B597B58217930720F418
:100A200086B597B599BD88BD8091F0009091F10091
:100A3000A091F200B091F3008093E1009093E20066
:100A4000A093E300B093E400FF90EF90DF90CF908D
:100A5000BF90AF909F908F907F906F905F904F90DE
:100A6000089581B3806381BB80EB94E097BD86BD20
:100A700082EA8FBD89E18EBD1BBC1ABC19BC18BCB3
:100A8000089590BD89B988E18AB98EE880BD109239
:100A90000B0108955D9BFECF8CB90895CF92DF9234
:100AA000EF92FF921F93CF93DF93CBE6D0E00F2E10
:100AB000F5ECCF2EF0E0DF2EF02D0FC018818981EC
:100AC00022960E944A05812F0E944A05CE15DF0515
:100AD000A9F7E701CE14DF0429F07E0122E1E20E3E
:100AE000F11CECCF8FEF93ED20E38150904020403C
:100AF000E1F700C00000DF91CF911F91FF90EF90D0
:100B0000DF90CF9008951F93CF93DF93E9EEF0E04D
:100B10001181D281C38180810E944A05812F0E9468
:100B20004A058D2F0E944A058C2F0E944A05ECEF42
:100B3000F0E01181D281C38180810E944A05812F1A
:100B40000E944A058D2F0E944A058C2F0E944A055B
:100B5000E6EDF0E01181D281C38180810E944A05D7
:100B6000812F0E944A058D2F0E944A058C2F0E94DA
:100B70004A05DF91CF911F910895579A089557988C
:100B800008951F920F920FB60F9211242F933F9347
:100B90004F935F936F937F938F939F93AF93BF9385
:100BA000EF93FF93ECB180910B018130F1F58091CF
:100BB0006601A82FB0E0A45FBE4FEC938F5F8093D7
:100BC00066018C3008F415C110920B01ECE0F1E0E5
:100BD00080819181A281B3818093E9009093EA00A2
:100BE000A093EB00B093EC0084819581A681B7813E
:100BF0008093FC009093FD00A093FE00B093FF0053
:100C000080859185A285B3858093D6009093D70087
:100C1000A093D800B093D9000E941E028FE99FE0F4
:100C20000197F1F700C00000E4C08230D1F5809157
:100C30006601A82FB0E0A45FBE4FEC938F5F809356
:100C400066018A3508F4D5C010920B0120910A0183
:100C50006BE670E05AE5520F15C0E22FF0E0E45F5A
:100C6000FE4F818190E0982F88273081830F911D5E
:100C70008D939D932E5F2413F0CF6E5E7F4F242FB4
:100C8000541721F042E1420FDB01E7CF50930A01F4
:100C90000E94ED018FE99FE00197F1F700C000008D
:100CA000A8C08E2F90E08D30910508F0A2C0FC0105
:100CB000E65DFF4F0C94CF081092EF0019BC18BCF2
:100CC00098C08091FA009091FB00873391050CF059
:100CD00090C001969093FB008093FA008AC08091A7
:100CE000FA009091FB00181619060CF082C00197CB
:100CF0009093FB008093FA007CC01092D100109278
:100D0000D0000E94BF051092EF0019BC18BC9FEFE5
:100D100025EE8AEA915020408040E1F700C00000B3
:100D200081E08093EF000E94BD0583E28093E000A4
:100D300081E090E09093D1008093D0005AC010924F
:100D4000D1001092D0000E94BF051092EF0019BC94
:100D500018BC9FEF2DE480E7915020408040E1F7E0
:100D600000C0000082E08093EF000E94BD0583E296
:100D70008093E00081E090E09093D1008093D000D8
:100D800038C08091D0009091D100019729F4109241
:100D9000D1001092D00006C081E090E09093D10085
:100DA0008093D0001092D1001092D0008FE59AEE7F
:100DB0000197F1F700C0000081E080930B011092D1
:100DC000660117C01092D1001092D0008FE59AEE04
:100DD0000197F1F700C0000082E080930B011092B0
:100DE000660110920A0105C00E944E0502C00E94D1
:100DF0008305FF91EF91BF91AF919F918F917F916B
:100E00006F915F914F913F912F910F900FBE0F9077
:100E10001F9018955058BB27AA270E9422070C94B0
:100E200023080E94150838F00E941C0820F039F4AD
:100E30009F3F19F426F40C9412080EF4E095E7FB9A
:100E40000C940C08E92F0E94340858F3BA17620773
:100E500073078407950720F079F4A6F50C945608DB
:100E60000EF4E0950B2EBA2FA02D0B01B9019001C5
:100E70000C01CA01A0011124FF27591B99F0593F09
:100E800050F4503E68F11A16F040A22F232F342F51
:100E90004427585FF3CF469537952795A795F0409F
:100EA0005395C9F77EF41F16BA0B620B730B840BB4
:100EB000BAF09150A1F0FF0FBB1F661F771F881F6C
:100EC000C2F70EC0BA0F621F731F841F48F48795C4
:100ED00077956795B795F7959E3F08F0B0CF9395B6
:100EE000880F08F09927EE0F9795879508950E942F
:100EF000E80708F481E008950E943C0888F09F57B5
:100F000098F0B92F9927B751B0F0E1F0660F771F2D
:100F1000881F991F1AF0BA95C9F714C0B13091F023
:100F20000E945608B1E008950C945608672F782F58
:100F30008827B85F39F0B93FCCF3869577956795E8
:100F4000B395D9F73EF490958095709561957F4F54
:100F50008F4F9F4F0895E89409C097FB3EF49095FA
:100F60008095709561957F4F8F4F9F4F9923A9F082
:100F7000F92F96E9BB279395F69587957795679511
:100F8000B795F111F8CFFAF4BB0F11F460FF1BC055
:100F90006F5F7F4F8F4F9F4F16C0882311F096E9E8
:100FA00011C0772321F09EE8872F762F05C0662396
:100FB00071F096E8862F70E060E02AF09A95660F4F
:100FC000771F881FDAF7880F9695879597F9089508
:100FD000990F0008550FAA0BE0E8FEEF161617064A
:100FE000E807F907C0F012161306E407F50798F0B2
:100FF000621B730B840B950B39F40A2661F0232BCB
:10100000242B252B21F408950A2609F4A140A69546
:101010008FEF811D811D089597F99F6780E870E02B
:1010200060E008959FEF80EC089500240A9416165E
:10103000170618060906089500240A9412161306C6
:10104000140605060895092E0394000C11F4882354
:1010500052F0BB0F40F4BF2B11F460FF04C06F5F70
:101060007F4F8F4F9F4F089557FD9058440F551F46
:1010700059F05F3F71F04795880F97FB991F61F01A
:101080009F3F79F087950895121613061406551F91
:10109000F2CF4695F1DF08C0161617061806991FFD
:1010A000F1CF86957105610508940895E894BB27F2
:1010B00066277727CB0197F908950E94E80708F47F
:1010C0008FEF08950E9475080C9423080E9415085C
:1010D00038F00E941C0820F0952311F00C940C08A5
:1010E0000C94120811240C9457080E94340870F3D1
:1010F000959FC1F3950F50E0551F629FF001729FBD
:10110000BB27F00DB11D639FAA27F00DB11DAA1FCB
:10111000649F6627B00DA11D661F829F2227B00D18
:10112000A11D621F739FB00DA11D621F839FA00DA3
:10113000611D221F749F3327A00D611D231F849FF3
:10114000600D211D822F762F6A2F11249F5750404A
:101150009AF0F1F088234AF0EE0FFF1FBB1F661FC5
:10116000771F881F91505040A9F79E3F510580F08E
:101170000C940C080C9457085F3FE4F3983ED4F3AA
:10118000869577956795B795F795E7959F5FC1F732
:10119000FE2B880F911D9695879597F90895EE0F70
:1011A000FF1F0590F491E02D0994A29FB001B39F19
:1011B000C001A39F700D811D1124911DB29F700D60
:0C11C000811D1124911D0895F894FFCFAB
:1011CC000581F34961332505F10121FEFFFFFF0085
:1011DC0000010002000300040005000600FDFFFEF4
:1011EC00FFFFFF000001000200030004000500FCEB
:1011FC00FFFDFFFEFFFFFF000001000200030004E3
:10120C0000FBFFFCFFFDFFFEFFFFFF0000010002E3
:10121C00000300FAFFFBFFFCFFFDFFFEFFFFFF00DA
:06122C00000100020000B9
:00000001FF
