:100000000C942A000C9473000C9447000C94470045
:100010000C9447000C9447000C9447000C94470044
:100020000C9447000C9447000C9447000C94A500D6
:100030000C9447000C9447000C9447000C94470024
:100040000C9447000C9447000C9447000C94470014
:100050000C94470011241FBECFE5D8E0DEBFCDBF12
:1000600010E0A0E6B0E0EAE2FAE002C005900D92EE
:10007000AA36B107D9F720E0AAE6B0E001C01D9288
:10008000A13AB207E1F70E94AE010C9413050C945B
:1000900000001ABA80E487B987E886B9089597B155
:1000A000987F8770892B87B9369A3699FECF84B1AD
:1000B00095B1089583B7856083BF12BE89B781600B
:1000C00089BF1092710010927000109296001092E9
:1000D000950084E190E090939C0080939B0081E0E8
:1000E0008093900008951F920F920FB60F921124E3
:1000F0002F938F939F9380916E0090916F00019644
:1001000090936F0080936E0080919500909196007F
:100110000196909396008093950080916E00909147
:100120006F00843992404CF080917200909173007E
:10013000019690937300809372009F918F912F91FD
:100140000F900FBE0F901F9018951F920F920FB631
:100150000F9211242F933F934F935F936F937F934D
:100160008F939F93AF93BF93EF93FF93809174000E
:100170009091750001969093750080937400809122
:100180009000813019F0823021F005C00E942D02CC
:1001900002C00E94880180E00E944F0096958795DA
:1001A0009695879590938F0080938E008091740030
:1001B000909175000A9754F0809195009091960067
:1001C0000E941C0110927500109274008FEF0E9423
:1001D0003B0380919B000E943B038091950090918E
:1001E00096000E943B0380918E000E943B0380E0BA
:1001F0000E943B0380E00E943B0310929600109205
:100200009500FF91EF91BF91AF919F918F917F9159
:100210006F915F914F913F912F910F900FBE0F9073
:100220001F90189587B38F6087BB88B3807F88BB8A
:100230008FEF84BB15BA0895CF93DF93AC01CAE664
:10024000D0E09C01ADECBCEC0E940405969587952E
:1002500096958795969587959C01220F331F880F59
:10026000991F880F991F880F991F820F931FFA01FA
:10027000E81BF90BE05AFF4F808188839A010E94A6
:100280000405AC0156954795569547955695479563
:100290009A010E940405969587959695879596955F
:1002A00087959C01220F331F880F991F880F991F74
:1002B000880F991F820F931F481B590BFA01E05AB0
:1002C000FF4F80818983DF91CF91089588B38F603C
:1002D00088BBC298EAE6F0E0818185BB8FE99FE0A8
:1002E0000197F1F700C0000088B38F6088BBC39806
:1002F000808185BB8FE99FE00197F1F700C0000086
:100300008FEF85BB089510928100109280000895B0
:10031000209195003091960080919B0090919C00D7
:10032000821B930B9093810080938000823E2FEF7D
:1003300092073CF482EE9FEF9093810080938000BF
:1003400008C04F9734F08EE190E090938100809345
:10035000800088B599B599BD88BD08950E9449006F
:100360000E945A000E9412010E9483010E94CD0146
:100370000E94E0010E94240389E190E00E9434037E
:100380002FEF83EC99E0215080409040E1F700C0CE
:10039000000078940E946601FDCF10926F001092C9
:1003A0006E001092730010927200109296001092DC
:1003B00095008A98929A80E48BBF81E085BF08956A
:1003C00080E090E0A8ECB1E480938A0090938B00E9
:1003D000A0938C00B0938D008AE999E9A9E9BFE365
:1003E00080939D0090939E00A0939F00B093A000E7
:1003F00080E090E0A0E2B1E48093780090937900EF
:10040000A0937A00B0937B0010929100109292001A
:1004100010929300109294001092970010929800FE
:100420001092990010929A00109286001092870004
:10043000109288001092890010928200109283001E
:10044000109284001092850010927C0010927D0022
:1004500010927E0010927F0008954F925F926F92EB
:100460007F928F929F92AF92BF92CF92DF92EF9244
:10047000FF92809195009091960060919B00709101
:100480009C00681B790B072E000C880B990B0E94AF
:10049000E2036B017C016093910070939200809362
:1004A00093009093940020E030E0A9010E94AC03F7
:1004B000882309F4BCC020919700309198004091A6
:1004C000990050919A00C701B6010E9440034B0168
:1004D0005C0120E030E84BEB54E40E9492041816D3
:1004E0004CF08092970090929800A0929900B09260
:1004F0009A000CC080E090E8ABEBB4E480939700E6
:1005000090939800A0939900B0939A00A701960148
:1005100060918200709183008091840090918500A9
:100520000E943F034B015C0160938600709387003B
:1005300080938800909389002091970030919800D3
:100540004091990050919A0060919D0070919E0099
:1005500080919F009091A0000E9497042B013C0184
:1005600020918A0030918B0040918C0050918D0039
:10057000C701B6010E9497049B01AC01C301B201FF
:100580000E9440036B017C0120917800309179003A
:1005900040917A0050917B00C501B4010E949704FC
:1005A0009B01AC01C701B6010E9440036B017C01B5
:1005B00020E030E0A9010E94AC0388234CF0C092F7
:1005C0007C00D0927D00E0927E00F0927F0008C017
:1005D00010927C0010927D0010927E0010927F009D
:1005E00060917C0070917D0080917E0090917F00F1
:1005F0000E94B10379BD68BD28B539B586B597B5F8
:100600008217930720F486B597B599BD88BD809170
:10061000910090919200A0919300B09194008093EA
:10062000820090938300A0938400B0938500FF9094
:10063000EF90DF90CF90BF90AF909F908F907F9082
:100640006F905F904F90089581B3806381BB80EB82
:1006500094E097BD86BD82EA8FBD89E18EBD1BBC4B
:100660001ABC19BC18BC089590BD89B988E18AB933
:100670008EE880BD08955D9BFECF8CB908955058DB
:10068000BB27AA270E9457030C9458040E944A04CF
:1006900038F00E94510420F039F49F3F19F426F4F9
:1006A0000C9447040EF4E095E7FB0C944104E92F09
:1006B0000E94690458F3BA17620773078407950705
:1006C00020F079F4A6F50C948B040EF4E0950B2E33
:1006D000BA2FA02D0B01B90190010C01CA01A00194
:1006E0001124FF27591B99F0593F50F4503E68F1EF
:1006F0001A16F040A22F232F342F4427585FF3CF30
:10070000469537952795A795F0405395C9F77EF400
:100710001F16BA0B620B730B840BBAF09150A1F049
:10072000FF0FBB1F661F771F881FC2F70EC0BA0FCF
:10073000621F731F841F48F4879577956795B79557
:10074000F7959E3F08F0B0CF9395880F08F0992752
:10075000EE0F9795879508950E941D0408F481E097
:1007600008950E94710488F09F5798F0B92F992737
:10077000B751B0F0E1F0660F771F881F991F1AF08C
:10078000BA95C9F714C0B13091F00E948B04B1E062
:1007900008950C948B04672F782F8827B85F39F061
:1007A000B93FCCF3869577956795B395D9F73EF425
:1007B00090958095709561957F4F8F4F9F4F0895CD
:1007C000E89409C097FB3EF49095809570956195EB
:1007D0007F4F8F4F9F4F9923A9F0F92F96E9BB27A1
:1007E0009395F695879577956795B795F111F8CF1D
:1007F000FAF4BB0F11F460FF1BC06F5F7F4F8F4F88
:100800009F4F16C0882311F096E911C0772321F07D
:100810009EE8872F762F05C0662371F096E8862F15
:1008200070E060E02AF09A95660F771F881FDAF76C
:10083000880F9695879597F90895990F0008550F99
:10084000AA0BE0E8FEEF16161706E807F907C0F056
:1008500012161306E407F50798F0621B730B840B5E
:10086000950B39F40A2661F0232B242B252B21F438
:1008700008950A2609F4A140A6958FEF811D811DD8
:10088000089597F99F6780E870E060E008959FEF12
:1008900080EC089500240A94161617061806090617
:1008A000089500240A9412161306140605060895E6
:1008B000092E0394000C11F4882352F0BB0F40F46E
:1008C000BF2B11F460FF04C06F5F7F4F8F4F9F4FAE
:1008D000089557FD9058440F551F59F05F3F71F030
:1008E0004795880F97FB991F61F09F3F79F0879597
:1008F0000895121613061406551FF2CF4695F1DF20
:1009000008C0161617061806991FF1CF86957105AF
:10091000610508940895E894BB2766277727CB01E3
:1009200097F908950E941D0408F48FEF08950E941E
:10093000AA040C9458040E944A0438F00E945104FE
:1009400020F0952311F00C9441040C9447041124D9
:100950000C948C040E94690470F3959FC1F3950F69
:1009600050E0551F629FF001729FBB27F00DB11D33
:10097000639FAA27F00DB11DAA1F649F6627B00DC3
:10098000A11D661F829F2227B00DA11D621F739FAC
:10099000B00DA11D621F839FA00D611D221F749FBA
:1009A0003327A00D611D231F849F600D211D822F01
:1009B000762F6A2F11249F5750409AF0F1F0882328
:1009C0004AF0EE0FFF1FBB1F661F771F881F915055
:1009D0005040A9F79E3F510580F00C9441040C94BF
:1009E0008C045F3FE4F3983ED4F386957795679542
:1009F000B795F795E7959F5FC1F7FE2B880F911D7F
:100A00009695879597F90895A29FB001B39FC0016D
:100A1000A39F700D811D1124911DB29F700D811D2A
:0A0A20001124911D0895F894FFCFF2
:0A0A2A0081F34961332505F1012134
:00000001FF
