:100000000C942A000C9477000C9447000C94470041
:100010000C9447000C9447000C9447000C94470044
:100020000C9447000C9447000C9447000C94A900D2
:100030000C9447000C9465040C9447000C94470002
:100040000C9447000C9447000C9447000C94470014
:100050000C94470011241FBECFE5D8E0DEBFCDBF12
:1000600010E0A0E6B0E0E4E0FDE002C005900D92F3
:10007000A43CB107D9F721E0A4ECB0E001C01D9287
:10008000A730B207E1F70E945B020C9480060C9443
:1000900000001ABA80E487B987E886B9089597B155
:1000A000987F8770892B87B9369A3699FECF84B1AD
:1000B00095B1089583B7856083BF12BE89B781600B
:1000C00089BF1092CF001092CE001092CB001092F8
:1000D000CA001092F2001092F10084E190E0909337
:1000E000F8008093F70082E08093EC0008951F925F
:1000F0000F920FB60F9211242F938F939F9380919D
:10010000C8009091C90001969093C9008093C800DF
:100110008091F1009091F20001969093F20080930B
:10012000F1008091C8009091C900843992404CF050
:100130008091CC009091CD0001969093CD0080935A
:10014000CC009F918F912F910F900FBE0F901F9019
:1001500018951F920F920FB60F9211242F933F9371
:100160004F935F936F937F938F939F93AF93BF93BF
:10017000EF93FF938091D0009091D10001969093DE
:10018000D1008093D0008091EC00813019F0823052
:1001900021F005C00E94E40202C00E94F00180E04C
:1001A0000E944F0096958795969587959093EB00C2
:1001B0008093EA008091D0009091D1000A9754F08A
:1001C0008091F1009091F2000E9426011092D100DE
:1001D0001092D0008091CE009091CF00892BB9F081
:1001E0008FEF0E94F2038091F7000E94F20380914A
:1001F000F1009091F2000E94F2038091EA000E94C7
:10020000F20380E00E94F20380E00E94F203109269
:10021000F2001092F100FF91EF91BF91AF919F9189
:100220008F917F916F915F914F913F912F910F909F
:100230000FBE0F901F90189587B38F6087BB88B350
:10024000807F88BB8FEF84BB15BA0895CF93DF936F
:10025000AC01C4ECD0E09C01ADECBCEC0E9471069A
:100260009695879596958795969587959C01220FEB
:10027000331F880F991F880F991F880F991F820FAE
:10028000931FFA01E81BF90BE05AFF4F8081888326
:100290009A010E947106AC0156954795569547956F
:1002A000569547959A010E94710696958795969561
:1002B0008795969587959C01220F331F880F991F6C
:1002C000880F991F880F991F820F931F481B590B86
:1002D000FA01E05AFF4F80818983DF91CF91089521
:1002E00088B38F6088BBC298E4ECF0E0818185BB65
:1002F0008FE99FE00197F1F700C0000088B38F609D
:1003000088BBC398808185BB8FE99FE00197F1F797
:1003100000C000008FEF85BB08951092DD001092A1
:10032000DC00109200011092FF0008950097E9F0A0
:100330008A3E2FEF9207E4F0823F2FEF9207DCF026
:10034000893F2FEF9207D4F09923DCF08731910594
:10035000DCF48F309105DCF488309105DCF418165C
:100360001906DCF080E090E0089584E090E00895C4
:1003700080E090E0089581E090E0089582E090E0D0
:10038000089583E090E0089588E090E0089587E084
:1003900090E0089586E090E0089585E090E008956B
:1003A000009779F0823F2FEF920774F099237CF049
:1003B0008F3091057CF4181619067CF080E090E0EF
:1003C000089582E090E0089580E090E0089581E053
:1003D00090E0089584E090E0089583E090E008952F
:1003E0000F931F93CF93DF932091F1003091F20090
:1003F0008091F7009091F800821B930B9093DD00A1
:100400008093DC00823E2FEF92073CF482EE9FEF58
:100410009093DD008093DC0008C04F9734F08EE1AC
:1004200090E09093DD008093DC008091DC0090915F
:10043000DD000091030110910401081B190B1093BA
:10044000FE000093FD000E949601EC0190930601CE
:1004500080930501C8010E94D0019093020180930E
:1004600001019C01220F331F220F331F220F331F64
:10047000820F931FC80FD91FCC0FDD1FC659DF4F46
:1004800088819981909300018093FF0028B539B548
:10049000880F991F820F931F99BD88BD8091DC0042
:1004A0009091DD009093040180930301DF91CF913F
:1004B0001F910F9108952FEF81EE94E0215080401D
:1004C0009040E1F700C000000E9449000E945A00DD
:1004D0000E941C010E948D010E9484020E949702CA
:1004E0000E94DB0389E190E00E94EB032FEF83EC95
:1004F00099E0215080409040E1F700C00000579AF9
:1005000078940E947001FDCF1092C9001092C8002B
:100510001092CD001092CC001092F2001092F100D7
:100520008A98929A80E48BBF81E085BF089580E02D
:1005300090E0A8E4B2E48093E6009093E700A093F3
:10054000E800B093E9008AE999E9A9E9BFE380935B
:10055000F9009093FA00A093FB00B093FC0080E0B8
:1005600090E0A0E2B1E48093D4009093D500A093F2
:10057000D600B093D7001092ED001092EE001092CA
:10058000EF001092F0001092F3001092F40010921D
:10059000F5001092F6001092E2001092E300109223
:1005A000E4001092E5001092DE001092DF0010923D
:1005B000E0001092E1001092D8001092D900109241
:1005C000DA001092DB0008954F925F926F927F9253
:1005D0008F929F92AF92BF92CF92DF92EF92FF9253
:1005E0008091F1009091F2006091F7007091F80015
:1005F000681B790B072E000C880B990B0E944F0586
:100600006B017C016093ED007093EE008093EF002E
:100610009093F00020E030E0A9010E9419058823A2
:1006200009F4BCC02091F3003091F4004091F50032
:100630005091F600C701B6010E94AD044B015C0168
:1006400020E030E84BEB54E40E94FF0518164CF014
:100650008092F3009092F400A092F500B092F60020
:100660000CC080E090E8ABEBB4E48093F30090938F
:10067000F400A093F500B093F600A70196016091F5
:10068000DE007091DF008091E0009091E1000E9417
:10069000AC044B015C016093E2007093E300809333
:1006A000E4009093E5002091F3003091F400409134
:1006B000F5005091F6006091F9007091FA00809178
:1006C000FB009091FC000E9404062B013C0120914C
:1006D000E6003091E7004091E8005091E900C70141
:1006E000B6010E9404069B01AC01C301B2010E9445
:1006F000AD046B017C012091D4003091D500409174
:10070000D6005091D700C501B4010E9404069B0198
:10071000AC01C701B6010E94AD046B017C0120E071
:1007200030E0A9010E94190588234CF0C092D8003E
:10073000D092D900E092DA00F092DB0008C010926B
:10074000D8001092D9001092DA001092DB0060916C
:10075000D8007091D9008091DA009091DB000E945E
:100760001E0579BD68BD28B539B586B597B5821720
:10077000930720F486B597B599BD88BD8091ED00AB
:100780009091EE00A091EF00B091F0008093DE0018
:100790009093DF00A093E000B093E100FF90EF9012
:1007A000DF90CF90BF90AF909F908F907F906F9091
:1007B0005F904F90089581B3806381BB80EB94E09C
:1007C00097BD86BD82EA8FBD89E18EBD1BBC1ABC78
:1007D00019BC18BC089590BD89B988E18AB98EE822
:1007E00080BD08955D9BFECF8CB90895CF92DF92B6
:1007F000EF92FF921F93CF93DF93CAE6D0E00F2EC4
:10080000F4ECCF2EF0E0DF2EF02D0FC0188189819F
:1008100022960E94F203812F0E94F203CE15DF057B
:10082000A9F7E701CE14DF0429F07E0122E1E20EF0
:10083000F11CECCF8FEF93ED20E3815090402040EE
:10084000E1F700C00000DF91CF911F91FF90EF9082
:10085000DF90CF9008951F93CF93DF93E6EEF0E003
:100860001181D281C38180810E94F203812F0E9475
:10087000F2038D2F0E94F2038C2F0E94F203E9EF06
:10088000F0E01181D281C38180810E94F203812F27
:100890000E94F2038D2F0E94F2038C2F0E94F2031C
:1008A000E4EDF0E01181D281C38180810E94F203E6
:1008B000812F0E94F2038D2F0E94F2038C2F0E9441
:1008C000F203DF91CF911F9108951F920F920FB6FF
:1008D0000F9211242F933F934F935F936F937F93C6
:1008E0008F939F93AF93BF93CF93EF93FF93CCB12D
:1008F000CC2301F18C2F90E00E942601CA30A9F090
:10090000CC30B1F0C530B1F48091CE009091CF00E1
:10091000019729F41092CF001092CE0006C081E01A
:1009200090E09093CF008093CE000E94F60302C027
:100930000E942B04FF91EF91CF91BF91AF919F91B6
:100940008F917F916F915F914F913F912F910F9078
:100950000FBE0F901F9018955058BB27AA270E94D2
:10096000C4040C94C5050E94B70538F00E94BE056A
:1009700020F039F49F3F19F426F40C94B4050EF4DA
:10098000E095E7FB0C94AE05E92F0E94D60558F3DD
:10099000BA17620773078407950720F079F4A6F564
:1009A0000C94F8050EF4E0950B2EBA2FA02D0B0138
:1009B000B90190010C01CA01A0011124FF27591BA4
:1009C00099F0593F50F4503E68F11A16F040A22FAA
:1009D000232F342F4427585FF3CF4695379527951B
:1009E000A795F0405395C9F77EF41F16BA0B620B1A
:1009F000730B840BBAF09150A1F0FF0FBB1F661F61
:100A0000771F881FC2F70EC0BA0F621F731F841FA3
:100A100048F4879577956795B795F7959E3F08F0C9
:100A2000B0CF9395880F08F09927EE0F979587958B
:100A300008950E948A0508F481E008950E94DE0569
:100A400088F09F5798F0B92F9927B751B0F0E1F08F
:100A5000660F771F881F991F1AF0BA95C9F714C03F
:100A6000B13091F00E94F805B1E008950C94F805BA
:100A7000672F782F8827B85F39F0B93FCCF3869578
:100A800077956795B395D9F73EF4909580957095D5
:100A900061957F4F8F4F9F4F0895E89409C097FB52
:100AA0003EF490958095709561957F4F8F4F9F4F45
:100AB0009923A9F0F92F96E9BB279395F695879589
:100AC00077956795B795F111F8CFFAF4BB0F11F44C
:100AD00060FF1BC06F5F7F4F8F4F9F4F16C08823F3
:100AE00011F096E911C0772321F09EE8872F762F29
:100AF00005C0662371F096E8862F70E060E02AF06A
:100B00009A95660F771F881FDAF7880F9695879555
:100B100097F90895990F0008550FAA0BE0E8FEEF2A
:100B200016161706E807F907C0F012161306E407B1
:100B3000F50798F0621B730B840B950B39F40A26AA
:100B400061F0232B242B252B21F408950A2609F488
:100B5000A140A6958FEF811D811D089597F99F678C
:100B600080E870E060E008959FEF80EC0895002435
:100B70000A941616170618060906089500240A9402
:100B800012161306140605060895092E0394000C88
:100B900011F4882352F0BB0F40F4BF2B11F460FF17
:100BA00004C06F5F7F4F8F4F9F4F089557FD905840
:100BB000440F551F59F05F3F71F04795880F97FB21
:100BC000991F61F09F3F79F08795089512161306DB
:100BD0001406551FF2CF4695F1DF08C0161617060A
:100BE0001806991FF1CF869571056105089408953F
:100BF000E894BB2766277727CB0197F908950E94D1
:100C00008A0508F48FEF08950E9417060C94C50515
:100C10000E94B70538F00E94BE0520F0952311F020
:100C20000C94AE050C94B40511240C94F9050E94A3
:100C3000D60570F3959FC1F3950F50E0551F629F45
:100C4000F001729FBB27F00DB11D639FAA27F00D25
:100C5000B11DAA1F649F6627B00DA11D661F829F4C
:100C60002227B00DA11D621F739FB00DA11D621F31
:100C7000839FA00D611D221F749F3327A00D611D4E
:100C8000231F849F600D211D822F762F6A2F112430
:100C90009F5750409AF0F1F088234AF0EE0FFF1F63
:100CA000BB1F661F771F881F91505040A9F79E3FBA
:100CB000510580F00C94AE050C94F9055F3FE4F308
:100CC000983ED4F3869577956795B795F795E79510
:100CD0009F5FC1F7FE2B880F911D9695879597F919
:100CE0000895A29FB001B39FC001A39F700D811D05
:100CF0001124911DB29F700D811D1124911D089525
:040D0000F894FFCF95
:100D040081F34961332505F10121FCFFFDFFFEFF5D
:100D1400FFFF00000100020003000400FCFFFDFFD0
:100D2400FEFFFFFF00000100020003000400FCFFBF
:100D3400FDFFFEFFFFFF00000100020003000400AE
:100D4400FCFFFDFFFEFFFFFF0000010002000300A7
:100D54000400FCFFFDFFFEFFFFFF00000100020096
:040D64000300040084
:00000001FF
